{"@account-abstraction/contracts/core/UserOperationLib.sol":{"UserOperationLib":{"abi":[{"inputs":[],"name":"PAYMASTER_DATA_OFFSET","outputs":[{"internalType":"uint256","name":"","type":"uint256"}],"stateMutability":"view","type":"function"},{"inputs":[],"name":"PAYMASTER_POSTOP_GAS_OFFSET","outputs":[{"internalType":"uint256","name":"","type":"uint256"}],"stateMutability":"view","type":"function"},{"inputs":[],"name":"PAYMASTER_VALIDATION_GAS_OFFSET","outputs":[{"internalType":"uint256","name":"","type":"uint256"}],"stateMutability":"view","type":"function"}],"evm":{"bytecode":{"linkReferences":{},"object":"60a96037600b82828239805160001a607314602a57634e487b7160e01b600052600060045260246000fd5b30600052607381538281f3fe730000000000000000000000000000000000000000301460806040526004361060475760003560e01c806325093e1b14604c578063b29a8ff4146065578063ede3150214606c575b600080fd5b6053602481565b60405190815260200160405180910390f35b6053601481565b605360348156fea264697066735822122019fb70435213092b4d14adc5b113f64f67bc488d7661eeebe794ba55542c1ac964736f6c634300081c0033","opcodes":"PUSH1 0xA9 PUSH1 0x37 PUSH1 0xB DUP3 DUP3 DUP3 CODECOPY DUP1 MLOAD PUSH1 0x0 BYTE PUSH1 0x73 EQ PUSH1 0x2A JUMPI PUSH4 0x4E487B71 PUSH1 0xE0 SHL PUSH1 0x0 MSTORE PUSH1 0x0 PUSH1 0x4 MSTORE PUSH1 0x24 PUSH1 0x0 REVERT JUMPDEST ADDRESS PUSH1 0x0 MSTORE PUSH1 0x73 DUP2 MSTORE8 DUP3 DUP2 RETURN INVALID PUSH20 0x0 ADDRESS EQ PUSH1 0x80 PUSH1 0x40 MSTORE PUSH1 0x4 CALLDATASIZE LT PUSH1 0x47 JUMPI PUSH1 0x0 CALLDATALOAD PUSH1 0xE0 SHR DUP1 PUSH4 0x25093E1B EQ PUSH1 0x4C JUMPI DUP1 PUSH4 0xB29A8FF4 EQ PUSH1 0x65 JUMPI DUP1 PUSH4 0xEDE31502 EQ PUSH1 0x6C JUMPI JUMPDEST PUSH1 0x0 DUP1 REVERT JUMPDEST PUSH1 0x53 PUSH1 0x24 DUP2 JUMP JUMPDEST PUSH1 0x40 MLOAD SWAP1 DUP2 MSTORE PUSH1 0x20 ADD PUSH1 0x40 MLOAD DUP1 SWAP2 SUB SWAP1 RETURN JUMPDEST PUSH1 0x53 PUSH1 0x14 DUP2 JUMP JUMPDEST PUSH1 0x53 PUSH1 0x34 DUP2 JUMP INVALID LOG2 PUSH5 0x6970667358 0x22 SLT KECCAK256 NOT 0xFB PUSH17 0x435213092B4D14ADC5B113F64F67BC488D PUSH23 0x61EEEBE794BA55542C1AC964736F6C634300081C003300 "},"methodIdentifiers":{"PAYMASTER_DATA_OFFSET()":"ede31502","PAYMASTER_POSTOP_GAS_OFFSET()":"25093e1b","PAYMASTER_VALIDATION_GAS_OFFSET()":"b29a8ff4"}}}}}