{
  "_format": "hh-sol-artifact-1",
  "contractName": "Paymaster",
  "sourceName": "contracts/PayMaster.sol",
  "abi": [
    {
      "inputs": [
        {
          "internalType": "address",
          "name": "_entryPoint",
          "type": "address"
        },
        {
          "internalType": "uint256",
          "name": "_gasLimit",
          "type": "uint256"
        },
        {
          "internalType": "address",
          "name": "initialOwner",
          "type": "address"
        }
      ],
      "stateMutability": "nonpayable",
      "type": "constructor"
    },
    {
      "inputs": [
        {
          "internalType": "address",
          "name": "owner",
          "type": "address"
        }
      ],
      "name": "OwnableInvalidOwner",
      "type": "error"
    },
    {
      "inputs": [
        {
          "internalType": "address",
          "name": "account",
          "type": "address"
        }
      ],
      "name": "OwnableUnauthorizedAccount",
      "type": "error"
    },
    {
      "anonymous": false,
      "inputs": [
        {
          "indexed": true,
          "internalType": "address",
          "name": "user",
          "type": "address"
        },
        {
          "indexed": false,
          "internalType": "uint256",
          "name": "amount",
          "type": "uint256"
        }
      ],
      "name": "GasPayment",
      "type": "event"
    },
    {
      "anonymous": false,
      "inputs": [
        {
          "indexed": true,
          "internalType": "address",
          "name": "previousOwner",
          "type": "address"
        },
        {
          "indexed": true,
          "internalType": "address",
          "name": "newOwner",
          "type": "address"
        }
      ],
      "name": "OwnershipTransferred",
      "type": "event"
    },
    {
      "anonymous": false,
      "inputs": [
        {
          "indexed": true,
          "internalType": "address",
          "name": "entryPoint",
          "type": "address"
        },
        {
          "indexed": true,
          "internalType": "address",
          "name": "token",
          "type": "address"
        },
        {
          "indexed": false,
          "internalType": "uint256",
          "name": "gasLimit",
          "type": "uint256"
        }
      ],
      "name": "PaymasterSetup",
      "type": "event"
    },
    {
      "stateMutability": "payable",
      "type": "fallback"
    },
    {
      "inputs": [],
      "name": "entryPoint",
      "outputs": [
        {
          "internalType": "contract IEntryPoint",
          "name": "",
          "type": "address"
        }
      ],
      "stateMutability": "view",
      "type": "function"
    },
    {
      "inputs": [],
      "name": "gasLimit",
      "outputs": [
        {
          "internalType": "uint256",
          "name": "",
          "type": "uint256"
        }
      ],
      "stateMutability": "view",
      "type": "function"
    },
    {
      "inputs": [],
      "name": "owner",
      "outputs": [
        {
          "internalType": "address",
          "name": "",
          "type": "address"
        }
      ],
      "stateMutability": "view",
      "type": "function"
    },
    {
      "inputs": [
        {
          "internalType": "enum IPaymaster.PostOpMode",
          "name": "mode",
          "type": "uint8"
        },
        {
          "internalType": "bytes",
          "name": "",
          "type": "bytes"
        },
        {
          "internalType": "uint256",
          "name": "actualGasCost",
          "type": "uint256"
        },
        {
          "internalType": "uint256",
          "name": "",
          "type": "uint256"
        }
      ],
      "name": "postOp",
      "outputs": [],
      "stateMutability": "nonpayable",
      "type": "function"
    },
    {
      "inputs": [],
      "name": "renounceOwnership",
      "outputs": [],
      "stateMutability": "nonpayable",
      "type": "function"
    },
    {
      "inputs": [
        {
          "internalType": "uint256",
          "name": "newGasLimit",
          "type": "uint256"
        }
      ],
      "name": "setGasLimit",
      "outputs": [],
      "stateMutability": "nonpayable",
      "type": "function"
    },
    {
      "inputs": [
        {
          "internalType": "address",
          "name": "newOwner",
          "type": "address"
        }
      ],
      "name": "transferOwnership",
      "outputs": [],
      "stateMutability": "nonpayable",
      "type": "function"
    },
    {
      "inputs": [
        {
          "components": [
            {
              "internalType": "address",
              "name": "sender",
              "type": "address"
            },
            {
              "internalType": "uint256",
              "name": "nonce",
              "type": "uint256"
            },
            {
              "internalType": "bytes",
              "name": "initCode",
              "type": "bytes"
            },
            {
              "internalType": "bytes",
              "name": "callData",
              "type": "bytes"
            },
            {
              "internalType": "bytes32",
              "name": "accountGasLimits",
              "type": "bytes32"
            },
            {
              "internalType": "uint256",
              "name": "preVerificationGas",
              "type": "uint256"
            },
            {
              "internalType": "bytes32",
              "name": "gasFees",
              "type": "bytes32"
            },
            {
              "internalType": "bytes",
              "name": "paymasterAndData",
              "type": "bytes"
            },
            {
              "internalType": "bytes",
              "name": "signature",
              "type": "bytes"
            }
          ],
          "internalType": "struct PackedUserOperation",
          "name": "userOp",
          "type": "tuple"
        },
        {
          "internalType": "bytes32",
          "name": "",
          "type": "bytes32"
        },
        {
          "internalType": "uint256",
          "name": "requiredPreFund",
          "type": "uint256"
        }
      ],
      "name": "validatePaymasterUserOp",
      "outputs": [
        {
          "internalType": "bytes",
          "name": "context",
          "type": "bytes"
        },
        {
          "internalType": "uint256",
          "name": "validationData",
          "type": "uint256"
        }
      ],
      "stateMutability": "view",
      "type": "function"
    },
    {
      "stateMutability": "payable",
      "type": "receive"
    }
  ],
  "bytecode": "0x60a060405234801561001057600080fd5b506040516108f33803806108f383398101604081905261002f91610173565b806001600160a01b03811661005f57604051631e4fbdf760e01b8152600060048201526024015b60405180910390fd5b61006881610107565b506001600160a01b0383166100b45760405162461bcd60e51b8152602060048201526012602482015271125b9d985b1a5908115b9d1c9e541bda5b9d60721b6044820152606401610056565b6001600160a01b03831660808190526001839055604051838152600091907fd45de942e068e55ec4e953f51c3a40ecc3195b619702f4cfb0531a7a6b955ff49060200160405180910390a35050506101af565b600080546001600160a01b038381166001600160a01b0319831681178455604051919092169283917f8be0079c531659141344cd1fd0a4f28419497f9722a3daafe3b4186f6b6457e09190a35050565b80516001600160a01b038116811461016e57600080fd5b919050565b60008060006060848603121561018857600080fd5b61019184610157565b9250602084015191506101a660408501610157565b90509250925092565b60805161071b6101d86000396000818161012a015281816101bf01526102b1015261071b6000f3fe6080604052600436106100785760003560e01c8063b0d691fe1161004b578063b0d691fe14610118578063ee7d72b41461014c578063f2fde38b1461016c578063f68016b71461018c57005b806352b7512c1461007a578063715018a6146100b15780637c627b21146100c65780638da5cb5b146100e6575b005b34801561008657600080fd5b5061009a6100953660046104f2565b6101b0565b6040516100a8929190610546565b60405180910390f35b3480156100bd57600080fd5b50610078610292565b3480156100d257600080fd5b506100786100e136600461059b565b6102a6565b3480156100f257600080fd5b506000546001600160a01b03165b6040516001600160a01b0390911681526020016100a8565b34801561012457600080fd5b506101007f000000000000000000000000000000000000000000000000000000000000000081565b34801561015857600080fd5b50610078610167366004610638565b61042a565b34801561017857600080fd5b50610078610187366004610651565b610437565b34801561019857600080fd5b506101a260015481565b6040519081526020016100a8565b60606000336001600160a01b037f000000000000000000000000000000000000000000000000000000000000000016146102275760405162461bcd60e51b81526020600482015260136024820152722ab730baba3437b934bd32b21031b0b63632b960691b60448201526064015b60405180910390fd5b6102346040860186610681565b9050600003610255575050604080516020810190915260008152600161028a565b600154831115610277575050604080516020810190915260008152600161028a565b5050604080516020810190915260008082525b935093915050565b61029a610475565b6102a460006104a2565b565b336001600160a01b037f0000000000000000000000000000000000000000000000000000000000000000161461031e5760405162461bcd60e51b815260206004820152601f60248201527f4f6e6c7920456e747279506f696e742063616e2063616c6c20706f73744f7000604482015260640161021e565b6000856002811115610332576103326106cf565b148061034f5750600185600281111561034d5761034d6106cf565b145b156103ee57604051600090339084908381818185875af1925050503d8060008114610396576040519150601f19603f3d011682016040523d82523d6000602084013e61039b565b606091505b50509050806103ec5760405162461bcd60e51b815260206004820152601c60248201527f4e617469766520746f6b656e207472616e73666572206661696c656400000000604482015260640161021e565b505b60405182815233907f65eb9e4e31cbc02dd2f7edd35f1e684132f20496511b7228c15163afc04dc1e49060200160405180910390a25050505050565b610432610475565b600155565b61043f610475565b6001600160a01b03811661046957604051631e4fbdf760e01b81526000600482015260240161021e565b610472816104a2565b50565b6000546001600160a01b031633146102a45760405163118cdaa760e01b815233600482015260240161021e565b600080546001600160a01b038381166001600160a01b0319831681178455604051919092169283917f8be0079c531659141344cd1fd0a4f28419497f9722a3daafe3b4186f6b6457e09190a35050565b60008060006060848603121561050757600080fd5b833567ffffffffffffffff81111561051e57600080fd5b8401610120818703121561053157600080fd5b95602085013595506040909401359392505050565b604081526000835180604084015260005b818110156105745760208187018101516060868401015201610557565b506000606082850101526060601f19601f8301168401019150508260208301529392505050565b6000806000806000608086880312156105b357600080fd5b8535600381106105c257600080fd5b9450602086013567ffffffffffffffff8111156105de57600080fd5b8601601f810188136105ef57600080fd5b803567ffffffffffffffff81111561060657600080fd5b88602082840101111561061857600080fd5b959860209190910197509495604081013595606090910135945092505050565b60006020828403121561064a57600080fd5b5035919050565b60006020828403121561066357600080fd5b81356001600160a01b038116811461067a57600080fd5b9392505050565b6000808335601e1984360301811261069857600080fd5b83018035915067ffffffffffffffff8211156106b357600080fd5b6020019150368190038213156106c857600080fd5b9250929050565b634e487b7160e01b600052602160045260246000fdfea26469706673582212209d9a906df2ffcb4d0640f162c490ce368357a3cfa3dc7cca0875482399011b1e64736f6c634300081c0033",
  "linkReferences": {},
  "deployedLinkReferences": {}
}